:020000040800F2
:10000000A00400209D01000845140008DD1200082E
:100010002D140008710700083916000800000000C0
:100020000000000000000000000000006114000853
:1000300089070008000000005D140008651400082E
:10004000B7010008B7010008B7010008B7010008B0
:10005000B7010008B7010008B7010008B7010008A0
:10006000B7010008B7010008B7010008B701000890
:10007000B7010008B7010008B7010008B701000880
:10008000B7010008B7010008B7010008B701000870
:10009000B7010008B7010008B7010008B701000860
:1000A000B7010008B7010008B7010008B701000850
:1000B000B7010008B7010008B7010008B701000840
:1000C000B7010008B7010008B7010008B701000830
:1000D000B7010008B7010008B7010008B701000820
:1000E000B7010008B7010008B7010008B701000810
:1000F000B7010008B7010008B7010008B701000800
:10010000B7010008B7010008B7010008B7010008EF
:10011000B7010008B7010008B7010008B7010008DF
:10012000B7010008B7010008B7010008B7010008CF
:10013000B7010008B7010008B7010008B7010008BF
:10014000B7010008B7010008B7010008B7010008AF
:10015000B7010008B7010008B7010008B70100089F
:10016000B7010008B7010008B7010008B70100088F
:10017000B7010008B7010008B7010008000000003F
:10018000B7010008B7010008DFF80CD000F048FA0A
:100190000048004751160008A00400200648804788
:1001A00006480047FEE7FEE7FEE7FEE7FEE7FEE75C
:1001B000FEE7FEE7FEE7FEE71915000889010008E3
:1001C0002DE9F05F0546002092469B46884606468C
:1001D000814640241BE0284641464746224600F01F
:1001E00057F853465A46C01A914110D31146184643
:1001F000224600F03EF82D1A67EB01084F462246D2
:100200000120002100F035F817EB00094E41201EB7
:10021000A4F10104DFDC484631462A464346BDE8E6
:10022000F09FD2B201E000F8012B491EFBD27047CB
:100230000022F6E710B513460A4604461946FFF7B2
:10024000F0FF204610BD30B50B46014600202022AD
:10025000012409E021FA02F59D4205D303FA02F5D3
:10026000491B04FA02F52844151EA2F10102F1DC33
:1002700030BD202A04DB203A00FA02F1002070474A
:100280009140C2F1200320FA03F3194390407047D4
:10029000202A04DB203A21FA02F00021704721FADB
:1002A00002F3D040C2F12002914008431946704742
:1002B0002DE9FE4F804681EA0300C00F0C460090F6
:1002C00021F0004123F00045B8EB0200A94105D21E
:1002D0004046214690461C460B46024623F000400D
:1002E000104347D0270DC7F30A00C3F30A51029009
:1002F000401A019040286BDAC3F3130040F4801BCE
:100300000098924620B10023D2EB030A63EB0B0B5B
:1003100001985946C0F140025046FFF7AAFF064631
:100320000D4650465946019A00F092F910EB08002C
:100330006141002487EA115284EAE7731A4340D0EE
:10034000009A62B3019A012A4FEA075215DC001B9A
:1003500061EB02014FF0004202EA0752CDE9004290
:10036000001C41F5801132462B4600F092F903B093
:10037000BDE8F08F40462146F9E7001B61EB020122
:10038000001C41F5801300185B412018A2F50017EE
:1003900047EB030140EAD570B6196D4111E06D08D5
:1003A0004FEA360645EAC0754FEA0752001B61EB7B
:1003B0000201001C41F5801149084FEA3000001984
:1003C000514132462B4603B0BDE8F04F00F052B920
:1003D0000098012240000023D0EB020263EBE0739F
:1003E000009821464FEAE074B8EB000061EB04018D
:1003F000E9E783F000435BE781F0004158E72DE92E
:10040000FE4F81EA030404F0004421F0004100940F
:100410004FF0000B23F0004350EA01045ED052EA93
:1004200003045BD0C3F30A54C1F30A552C44A4F26D
:10043000F3340194A0FB0254C1F3130141F4801181
:10044000C3F3130343F4801301FB024400FB034E88
:10045000840A970A44EA815447EA8357A4FB076851
:1004600002958D0A05FB07854FEA932C04FB0C547B
:100470002705029D4FEA065847EA1637B5EB0805EF
:100480006EEB070C870E920E47EA811742EA831241
:10049000A7FB0201B6EB0B0164EB00042B0D43EA52
:1004A0000C335E1844EB1C50DA465146E7FB020160
:1004B000C5F313044FEA0B3343EA14534FEA0432F3
:1004C000019C43EA0603A4F10C040294009CCDE9CC
:1004D00000B400F0DEF803B0BDE8F08F0020014664
:1004E000F9E72DE9F04D81EA030404F0004B21F017
:1004F000004514464FF0000A23F0004150EA05027F
:1005000020D054EA01021DD0C5F30A570246C5F3B4
:100510001303C1F31300C1F30A5640F4801543F4EA
:100520008013A7EB0608101BD64608F2FD3873EBC4
:10053000050002D308F1010801E092185B41B8F10F
:10054000000F03DA00200146BDE8F08D00204FF4D3
:100550008011064684460EE0171B73EB050705D392
:10056000121B63EB050306434CEA010C49084FEAF2
:10057000300092185B4150EA0107EDD152EA0300C6
:1005800012D082EA040083EA0501084305D0101B5B
:10059000AB4106D20122002306E000224FF00043C7
:1005A00002E06FF0010253101AEB06004CEB085109
:1005B00010EB0A0041EB0B01BDE8F04D00F05AB81A
:1005C000C1F30A52C1F3130140F2FF3341F4801129
:1005D0009A4202DA00200146704740F233439A42C1
:1005E000A2F2334202DC5242FFF752BEFFF741BE95
:1005F00030B5041E71F1000404DB4FF000444042AA
:1006000064EB0101141E73F1000405DB1C464FF07E
:100610000043524263EB0403994208BF904230BD4D
:100620001CB509480090094801900546009C06E069
:10063000E06840F0010394E8070098471034AC42AA
:10064000F6D3FFF7A5FD0000D41F0008F41F000833
:10065000202A06DBCB17203A41FA02F043EAE07386
:1006600006E041FA02F3D040C2F120029140084373
:100670001946704710B5141E73F1000408DA401CC7
:1006800041F1000192185B411A4301D120F00100B1
:1006900010BD2DE9F04D92469B4611B1B1FA81F2A1
:1006A00002E0B0FA80F220329046FFF7E2FD044605
:1006B0000F4640EA0A0041EA0B0153465A460843F6
:1006C00013D0114653EA010019D0C8F14002504638
:1006D000FFF7DEFD05460E46504659464246FFF7F7
:1006E000C8FD084305D0012004E020463946BDE896
:1006F000F08D0020054346EAE0762C4337430A9804
:100700006305E40AA0EB08000022FD0A44EA47540E
:100710000A3002D500200146E9E7010510196941B8
:10072000DDE9084500196941BDE8F04DA2E7000088
:1007300083B0B0B59BB004461FA802AD0EC02846DA
:100740006421FFF775FD1FAA28462146019200F09B
:10075000B5FF40F21800C2F20000294664224FF0B3
:10076000FF3300F019FD1BB0BDE8B04003B0704787
:1007700040F60044C4F2020420464FF480410122B6
:1007800000F000F9F8E7000070470000EFF3108078
:1007900072B600BFFEE70000002804BF01207047CA
:1007A00010B50446407920B900202071204600F0A1
:1007B00005F801206071002010BD000043F63001F3
:1007C000C4F202010068A1F50362904218BF7047AD
:1007D00081B000200090086840F4805008600868EC
:1007E00000F480500090009801B070472DE9F04F60
:1007F00082B000F13E4202F1FF72870547EA922281
:1008000041F6004743F6004EC4F202070823C4F243
:10081000010EB84208BF07234FF0010B0027002448
:100820004FF00008072A38BF1346009309E000BFC5
:1008300008F101080234B8F1100F07F1040700F0C5
:100840009E800E680BFA08F216EA0209F0D0D1F881
:1008500004C0BCF1120F17D80BFA0CF616F0061FE5
:1008600012D00323866803FA04F5CB6826EA05054F
:10087000A3402B438360436823EA0202CCF30013B6
:1008800003FA08F31A4342600323C26803FA04FA26
:100890008B6822EA0A02A3401A434CF01003122B81
:1008A000C26011D16FF0030202EA5802024407F05D
:1008B0001C060F23D2F820C003FA06F50B692CEAB8
:1008C0000505B3402B43136203684E686FEA0A02C2
:1008D0001A4006F00303A3401A43F3000260A7D5B1
:1008E000002243F644030192C4F202031A684FF651
:1008F000084C42F480421A601A68CFF6FF7C02F47A
:1009000080420192019A28F00302724452F80C309E
:1009100007F00C060F25B540AB43009D05FA06F61F
:10092000334342F80C30DEF800204B6842EA0906F7
:10093000DD0358BF22EA0906CEF80060DEF8042085
:100940009D0342EA090658BF22EA0906CEF8046070
:10095000DEF80820DD0242EA090643F60C4558BFDE
:1009600022EA0906CEF80860C4F201052A689B0253
:1009700042EA090658BF22EA09062E6058E702B08B
:10098000BDE8F08F002A08BF0904816170470000AC
:1009900040F29800C2F200000068704740F2040084
:1009A00040F29801C2F20000C2F2000100780A6829
:1009B000104408607047000080B543F60040C4F260
:1009C0000200016841F400710160016841F4806136
:1009D0000160016841F480710160032000F078F843
:1009E000002000F005F800F02BF8002080BD00008A
:1009F000B0B540F20402C2F2000240F200011278E7
:100A0000C2F200014FF47A730968B3FBF2F20446B4
:100A1000B1FBF2F1084600F019FB0F2C4FF0010575
:100A20000CD858B94FF0FF3021460022002500F0C5
:100A300023F840F20800C2F2000004602846B0BD6E
:100A400082B0002043F640010190C4F202014A68DE
:100A500042F480424A604A6802F480420192019A5C
:100A60000090086840F080500860086800F08050EE
:100A70000090009802B0704710B54EF60C5CCEF2B4
:100A8000000CDCF80030C3F3022E8EF00704042CB7
:100A900028BF0424BEF103034FF0FF3E0EFA04F416
:100AA00038BF0023A14399400EFA03F39A43114340
:100AB00000F1604200F00F03090102F56442043BBB
:100AC0006344002848BF03F10C02117010BD000000
:100AD0004EF60C51CEF200010A684FF6FF031A40A1
:100AE00060F30A2242F0806040F0FD7008607047B9
:100AF000002804BF012070472DE9F04143F60808A3
:100B0000C4F202080446D8F8F8030D4600F00F00BE
:100B1000884207D288F8F853D8F8F80300F00F009D
:100B2000A84276D12068810717D5410705D5D8F8A6
:100B3000001041F4E051C8F80010010705D5D8F8BD
:100B4000001041F46041C8F80010D8F80010A26805
:100B500021F0F0011143C8F80010C0073FD1D8F8C8
:100B6000F80300F00F00A84207D988F8F853D8F826
:100B7000F80300F00F00A8424BD12068410707D5C9
:100B8000D8F80010E26821F4E0511143C8F80010D1
:100B9000000708D5D8F80000216920F4604040EA39
:100BA000C100C8F8000000F07BF8D8F8001041F64A
:100BB000BC72C1F30311C0F60002515C40F20002A6
:100BC00020FA01F140F20800C2F200000068C2F20F
:100BD00000021160FFF70CFF0020BDE8F0816068A3
:100BE000811E022907D258F8081C89015CBF012028
:100BF000BDE8F08110E0012807D158F8081C8903EE
:100C00005CBF0120BDE8F08106E058F8081C8907A8
:100C100002D40120BDE8F081D8F8001021F00301D2
:100C20000843C8F80000FFF7B3FE064641F28837D4
:100C3000D8F80000616800F00C00B0EB810F8ED096
:100C4000FFF7A6FE801BB842F2D90320BDE8F08171
:100C500040F2000043F60801C2F20000C4F20201B3
:100C60000068096841F6CC72C1F38221C0F6000227
:100C7000515CC8407047000040F2000043F6080194
:100C8000C2F20000C4F202010068096841F6CC72A9
:100C9000C1F34231C0F60002515CC8407047000009
:100CA00010B543F60404C4F20204606800F00C01BD
:100CB00042F200400829C0F2F40007D0042918BF0E
:100CC00010BD41F20020C0F27A0010BD216801F091
:100CD0003F02216823684902C3F3881105D4A1FBB0
:100CE00000010023FFF76CFA06E041F20020C0F299
:100CF0007A004843B0FBF2F021680222C1F30141BF
:100D000002EB4101B0FBF1F010BD0000002804BF70
:100D1000012070472DE9F04182B00446007843F687
:100D20000006C007C4F2020647D0B06800F00C000D
:100D3000042808D1306880033FD56068E8BB0120F3
:100D400002B0BDE8F081B06800F00C00082802D1C4
:100D500070684002EED46568B5F5A02F0AD0B5F5ED
:100D6000803F0BD0306820F480303060306820F451
:100D7000802006E0306840F480203060306840F425
:100D800080303060FFF704FE002D054612D000BF12
:100D90003068800311D4FFF7FBFD401B6428F7D9AE
:100DA0001CE100BFFFF7F4FD401B64284FF0030077
:100DB00000F2D88030688003F4D42078800719D5F9
:100DC000B06810F00C0F07D0B06800F00C000828D5
:100DD0007DD1706840027AD43068800703D5E0681E
:100DE000012840F096803068216920F0F80040EA40
:100DF000C1003060207800072CD42078400740D410
:100E0000A5691DB3B06800F00C00082840F096807A
:100E1000012D00F07E807068E16900F480028A4252
:100E200077D1216A00F03F028A4272D147F6C07141
:100E3000626A014091426CD1A16A00F440328A4258
:100E400067D1E16A00F07060884262D1002002B090
:100E5000BDE8F0816069002840F20000C4F247203C
:100E60005BD00121C0F8801EFFF792FD054600BF50
:100E7000706F8007C1D4FFF78BFD401B0228F7D9A4
:100E8000ACE0306C5FEAC0080AD400200190306CFE
:100E900040F080503064306C00F080500190019838
:100EA00047F20007C4F200073868C00524D4386848
:100EB00040F480703860FFF76BFD05463868C00568
:100EC0001AD4FFF765FD401B0228F7D986E0E068D9
:100ED000002857D00020C4F2472001210160FFF70D
:100EE00057FD0546306880073FF57DAFFFF750FDA1
:100EF000401B0228F6D971E0A568052D56D0012DBA
:100F000058D0306F20F001003067306F20F00400BF
:100F100053E0012002B0BDE8F0810021C0F8801E3E
:100F2000FFF736FD054600BF706F80077FF565AFA0
:100F3000FFF72EFD401B0228F6D94FE00027C4F230
:100F4000472700203866FFF723FD022D05460DD107
:100F50003068800159D5FFF71BFD401B02284FF078
:100F60000300F5D902B0BDE8F08100BF3068800110
:100F70007FF56CAFFFF70CFD401B02284FF003001C
:100F8000F4D9EFE70020C4F2472000210160FFF709
:100F9000FFFC0546306880077FF52CAFFFF7F8FCB3
:100FA000401B02284FF00300F4D9DBE7306F40F01C
:100FB00004003067306F40F001003067FFF7E8FC55
:100FC000002D054641F2883713D000BF306F8007EF
:100FD00012D4FFF7DDFC401BB842F7D9032002B062
:100FE000BDE8F081FFF7D4FC401BB8424FF003008E
:100FF000B8D8306F8007F5D4B8F1000F3FF500AFD7
:10100000306C20F080503064FAE604F11C052FCDDE
:10101000084340EA8210D9034FF6FF729143A1F5CD
:10102000803140EA05600843706001203866FFF7B0
:10103000AFFC0446306880013FF508AFFFF7A8FC1D
:10104000001B02284FF00300F4D98BE7411E00205B
:10105000B0EB116F1CBF012070474EF21002CEF2B0
:10106000000251604EF62351CEF20001F0230B70C6
:101070000721906011607047002804BF012070476D
:1010800010B5044690F8390028B9002084F83800DB
:10109000204600F021F8242084F839002068C16837
:1010A00021F40051C160204600F044FA2068016933
:1010B00021F490410161416921F02A014161C16837
:1010C00041F40051C16000202021E06384F8391010
:1010D00084F83A1010BD000080B586B0006844F670
:1010E0000002C4F2000200219042CDE90411CDE9D2
:1010F0000211019123D044F20041C4F20001884260
:1011000048D1002043F630010090C4F202010A6980
:1011100042F400320A610A6902F400320092009A35
:101120000090086840F00100086008680C2100F099
:101130000100009000980020C4F202001EE043F677
:1011400030000091C4F20200026942F48022026180
:10115000026902F480220092009A0091016841F035
:101160000201016000684FF4406100F0020000904D
:1011700000980020C4F2020000F580600191022175
:10118000029100210391032104910721059101A9F6
:10119000FFF72CFB06B080BD2DE9F041044690F826
:1011A000390020280ED10F4600294FF0010000F031
:1011B00093801646002A08BFBDE8F08194F83800F5
:1011C000012802D10220BDE8F081012084F8380016
:1011D0004FF0000821201D46C4F83C8084F83900F7
:1011E000FFF7D6FBA684E68484F83880E18C80463D
:1011F000002944D06E1C05E017F8010B21684860F7
:10120000E08CE0B3E08C0138E0842068A1680068DD
:10121000B1F5805F4FEA006004D1002816D496B182
:101220005DB934E00028E7D43EB305BB2FE000BF32
:10123000016809060AD4002EFAD0FFF7A9FBA0EB3B
:101240000800A84223D82068F2E700BF3888216947
:1012500022686FF35F200029506014BF0137023706
:10126000CEE700BF01680906C6D4002EFAD0FFF70A
:101270008FFBA0EB0800A84209D82068F2E720689D
:101280000068400624D415B16E1C14D019E0206803
:10129000C16821F4D071C160416921F0010141614F
:1012A000202084F8390084F83A00002084F83800BF
:1012B0000320BDE8F08120680168490608D4002EAB
:1012C000FAD0FFF765FBA0EB0800A842F3D9DEE7F0
:1012D000202084F839000020BDE8F08140F6004469
:1012E000C4F2020420464FF480410122FFF74AFB7A
:1012F000F8E7000080B540F2100043F20001C2F2AE
:101300000000C4F202010160FFF746FA002808BF9E
:1013100080BDBDE88040FFF739BA000070B586B0E7
:10132000002543F630000595CDE90355CDE901557B
:101330000095C4F20200016840F6004441F08001CB
:1013400001600168C4F2020401F08001009100997B
:1013500000950168002241F00101016001684FF42D
:10136000704601F00101009100990095016841F07B
:1013700002010160016801F00201009100990095ED
:10138000016841F00801016000684FF4704100F00D
:101390000800009000982046FFF7F4FA0120CDE9FC
:1013A000020501A9204601960495FFF71FFA06B031
:1013B00070BD000080B540F2180044F20041C2F256
:1013C0000000C4F2000100234FF00C0C4FF4E13296
:1013D00080E80E00C0E90333C0E905C3C361FFF72D
:1013E0004BFE002808BF80BDBDE88040FFF7CEB9A6
:1013F00080B540F2580044F60001C2F20000C4F289
:10140000000100234FF00C0C4FF4E13280E80E0095
:10141000C0E90333C0E905C3C361FFF72DFE00280F
:1014200008BF80BDBDE88040FFF7B0B940F600447A
:10143000C4F2020420464FF480410122FFF7A2FAD1
:10144000F8E7000040F60040C4F202004FF480418B
:101450000122FFF797FA00BFFEE700007047000087
:1014600070470000FFF79ABA70B592B006AC2046FC
:101470003021FEF7DDFE002543F640000595CDE95D
:101480000355CDE901550095C4F20200016802261A
:1014900041F080510160006800F080500090009899
:1014A00047F200000095C4F20000016841F4804159
:1014B00001600068A82100F480400090009801209D
:1014C00006904FF4803007904FF480000D90042078
:1014D0000E90119020460C96CDE90F16FFF716FCE2
:1014E00018B1EFF3108072B6FEE70F20CDE90106C8
:1014F0004FF4A05004904FF48050059001A80521AE
:101500000395FFF7F5FA20B1EFF3108072B600BF34
:10151000FEE712B070BD00004EF68850CEF200001B
:10152000016841F4700101604FF0006140F8801CD7
:1015300070470000B0B50446006804F108030ECB04
:101540000569194325F440552A430261626949F24D
:101550000C651143E269C368B2F5004F23EA050345
:1015600041EA030141EA0201C1604169A36921F432
:10157000407141EA0301416141F2004140F4806061
:10158000C4F2010108D14FF69C758842C0F6FF7580
:101590000BD1FFF771FB0AE04FF69C758842C0F64D
:1015A000FF7525D1FFF768FB24E0FFF751FB636867
:1015B0001921A0FB01015A00DB0FFEF701FE48F2E2
:1015C0001F51C5F2EB11A0FB01235A0905F180530D
:1015D00002FB0300322303EBC000A0FB01014FF428
:1015E000F87000EA111000EB0210C1F342111EE086
:1015F000FFF72EFB63681921A0FB01019A009B0FE6
:10160000FEF7DEFD48F21F51C5F2EB11A0FB0123EE
:101610005A0902FB0500322303EB0010A0FB010175
:10162000F02000EA511000EB0210C1F3431108440E
:1016300021688860B0BD000040F60044C4F2020496
:1016400020464FF480410122FFF79CF9F8E70000A3
:10165000FFF7B2F90DA0FFF76BF8FFF705FFFFF7F3
:101660005DFEFFF747FEFFF7A5FEFFF7C1FE0DA0E9
:10167000FFF75EF840F60040C4F202004FF48051DC
:101680000122FFF77FF900BFFEE700BF426F6F74D2
:101690006C6F616465722053746172746564200DAF
:1016A0000A000000426F6F746C6F61646572207392
:1016B0007461727465642E200D0A000037B51446FB
:1016C0000846064B6A46214600F0DCF804466946A7
:1016D000002000F06EFC20463EBD0000B31F000855
:1016E00002E008C8121F08C1002AFAD170477047EB
:1016F000002001E001C1121F002AFBD17047000049
:101700002DE9FF5F82B00021DDE90430020DDDF834
:1017100040B0034318D044F61050A2F2FF324243C7
:101720001514119801281FD0A5EB0B00401C5FEA8F
:10173000000A4FF000064E4FDFF83891B046504691
:1017400015D5CAF1000413E0119801244AA3012819
:1017500001D16FEA0B010298119AC0E90031C0E98A
:10176000024206B0BDE8F09FCBF10000DFE704467F
:101770000021404A491842EB0450CDE9001012E024
:10178000E00707D032463B4640464946FEF737FE63
:101790008046894632463B4610461946FEF72FFEE4
:1017A00006460F466410002CEAD1DDE90401DDE9AC
:1017B0000023BAF1000F06DAFEF721FE42464B463F
:1017C000FEF71DFE05E0FEF78CFE42464B46FEF797
:1017D00088FE04460E460022284BFEF709FF03D878
:1017E0004FF0FF30014607E00022254B20463146EE
:1017F000FEF75EFDFEF7E4FE102409E0002C0ADB94
:101800000A220023FEF7DCFC039B30321A55641ECB
:1018100050EA0102F2D1641C039AC4F1110314448A
:10182000119A012A03D0012208430DD10AE008438E
:1018300004D000204FF0110B119072E7A3EB0B05C1
:101840006D1E0DE05B4504DD4FF0000205F1010562
:1018500004E003DA4FF00002A5F10105002AECD004
:1018600002981199C0E90231C0E9004579E700000A
:10187000000014400000F03F300000000000F04382
:101880000000E03F2DE9FF4F95B09B468946064694
:1018900000250FE2252877D100242746F84A0121A8
:1018A000059400E0044316F8013F203B01FA03F0E1
:1018B0001042F7D130782A2811D06FF02F033078FA
:1018C000A0F13002092A16D8059A44F0020402EB6E
:1018D000820203EB42021044761C0590EFE759F8B0
:1018E000042B0592002A03DA504244F40054059078
:1018F00044F00204761C30782E2816D116F8010F19
:1019000044F004042A280DD06FF02F023078A0F1A3
:101910003003092B09D807EB870302EB4303C718F1
:10192000761CF3E759F8047B761C30786C280FD0CE
:1019300006DC4C2817D068280DD06A2814D104E0A2
:10194000742810D07A280FD10DE044F400140AE076
:1019500044F4801401E044F440147278824202D1CD
:1019600004F58014761C761C307866280BD013DCC6
:10197000582877D009DC002875D04528F6D04628AD
:10198000F4D047281AD19DE118E0632835D06428A7
:1019900079D0652812D195E1702873D008DC6728CA
:1019A000F1D069286FD06E280DD06F2806D1B5E030
:1019B00073282CD0752875D0782874D05A4617997A
:1019C00090476D1C75E1C4F30250022809D003282A
:1019D0000DD0D9F8001004280DD00D6009F10409CC
:1019E00067E1D9F80010EA17C1E90052F6E7D9F823
:1019F00000100D80F2E70D70F0E719F8041B8DF868
:101A0000001000208DF80100EA46012003E059F89B
:101A100004AB4FF0FF3061074FF0000102D40DE03E
:101A200008F101018846B9420FDA8045F8DB1AF85F
:101A300008100029F4D108E008F10101884681422C
:101A4000FADB1AF808100029F6D105985B46A0EBDE
:101A5000080721463846179A00F094FA284400EB0C
:101A6000080507E04DE029E10DE01AF8010B5A46A0
:101A700017999047B8F10108F7D25B4621463846DE
:101A8000179A13E142E00A220092C4F302524FF087
:101A9000000A022A08D059F804CB032A4FEAEC7155
:101AA0000AD00DE029E02AE009F1070121F0070240
:101AB000F2E802C1914609E00FFA8CFC4FEAEC71A2
:101AC000042A03D14FFA8CFC4FEAEC71002907DAA3
:101AD0000A460021DCF1000C61EB02012D2202E03C
:101AE000220504D52B228DF80420012203E0E20711
:101AF00001D02022F7E7904659E00A2102E01022A7
:101B00000DE010214FF0000A00910BE010224FF081
:101B1000000A44F004040827009203E008224FF072
:101B2000000A0092C4F30252022A05D059F804CBED
:101B30000021032A08D009E009F1070121F007027A
:101B4000F2E802C1914605E01FFA8CFC042A01D19B
:101B50000CF0FF0C4FF00008220728D5702806D0A3
:101B6000009B83F0100353EA0A0305D00EE04022E5
:101B70008DF80420012208E05CEA010206D0302240
:101B80008DF804208DF8050002229046009B83F01A
:101B9000080353EA0A030AD15CEA010201D1620791
:101BA00005D530228DF804204FF001087F1E5828FB
:101BB00004D034A003900EA802900DE036A0F9E7FF
:101BC00053466046009AFEF7FBFA84460398825C0F
:101BD0000298401E029002705CEA0100F0D1029867
:101BE00006A9081A00F1200A600702D524F48034FF
:101BF00000E00127574502DDA7EB0A0000E00020C6
:101C000000EB0A01009005984144401A0590E0035A
:101C100006D45B462146179A059800F0B3F90544AF
:101C2000002706E001A85A46C05D179990476D1C31
:101C30007F1C4745F6DBE0030CD55B462146179A2F
:101C4000059800F09FF9054404E030205A461799A2
:101C500090476D1C0099481E00900029F5DC08E0B3
:101C6000029802995A460078491C029117999047A8
:101C70006D1CBAF10001AAF1010AF1DC65E1000076
:101C80000928010030313233343536373839616252
:101C90006364656600000000303132333435363716
:101CA00038394142434445460000000000F058F9ED
:101CB0000544761C307800287FF4ECAD19B0284636
:101CC000BDE8F08F620700D4062709F1070222F071
:101CD000070CFCE80223E14603F000485FEA080C29
:101CE00002D00FF2702C0DE05FEA045C02D50FF217
:101CF000682C07E05FEAC47C02D00FF2602C01E0A0
:101D0000AFF2700C4FF0FF3823F00043CDF850C015
:101D100065280CD006DC452809D046281DD0472868
:101D20003DD13DE0662818D067287ED138E00021FB
:101D3000112F01DB112000E0781CCDE9000106A97C
:101D40000EA8FFF7DDFCDDE90F010E9A03910021DB
:101D5000009207F1010A04914DE04FF00040009716
:101D6000CDE9011006A90EA8FFF7CAFCDDE90F02B4
:101D700003920E9B11990022DDF80CA000930492AF
:101D800011B9791C00EB010AB7EB0A0004D4C0F1C9
:101D9000FF3007F1010A0490AAEB0700019044E02C
:101DA000012F00DA01270021112F01DD112000E0B1
:101DB0003846CDE9000106A90EA8FFF7A1FCDDE930
:101DC0000F010E9A0391002104910092BA46210757
:101DD0000CD40399514500DA8A46BAF1010F05DDAA
:101DE000009AAAF10101515C302908D0B84202DA08
:101DF00010F1040F06DA0121CDE9011015E0AAF176
:101E00000101E9E7002805DC049901440491AAEBEB
:101E1000000102E0411C514500DD8A460499401A48
:101E2000401C01904FF000400290200704D401981C
:101E3000504501DBCDF8048000208DF84F0002985A
:101E40000DF14F07B0F1004F25D02B200E900298D6
:101E50004FF0020800280CDA404202902D200E902C
:101E600007E00A210298FEF7EEF93031029007F8F8
:101E7000011DB8F10001A8F10108F2DC0298002868
:101E8000EFD1791E0E980870307800F0200040F0F5
:101E9000450007F8020D12A8C01B00F107081498AE
:101EA000007800B1012000EB0A01019801EBE0711C
:101EB00005984144401A401E0590E00306D45B4655
:101EC0002146179A059800F05DF8054414980078AB
:101ED00018B15A46179990476D1CE00324D55B460C
:101EE0002146179A059800F04DF805441CE0049827
:101EF000002807DBDDE90301884203DD0098405C30
:101F0000179901E0179930205A469047049805F137
:101F10000105401C04900198401E019004D12E2020
:101F20005A46179990476D1CBAF10001AAF1010AAF
:101F3000DDDC05E017F8010B5A46179990476D1C38
:101F4000B8F10001A8F10108F4DC5B462146179ABC
:101F50000598ABE62D0000002B00000020000000DB
:101F60002DE9F041044600251E461746880404D496
:101F700005E039462020B0476D1C641EF9D528467F
:101F8000BDE8F0812DE9F041044600251E4690464B
:101F9000C80301D5302700E02027880404D505E0D8
:101FA00041463846B0476D1C641EF9D52846BDE849
:101FB000F0810A68531C0B6010707047000000002D
:101FC00000000000010203040607080900000000E9
:101FD00001020304F81F00080000002010000000A8
:101FE000E0160008082000081000002090040000FF
:101FF000F0160008000000000024F40001000000BA
:082000001000000000000000C8
:040000050800018965
:00000001FF
